:03000000020CD21D
:0C0CD200787FE4F6D8FD758164020D19EE
:100E0200084C0000000000000000115420202020A7
:0D0E1200202020202E202020202020200045
:100DD9007FF47E01120DB9120E64120E2030000547
:100DE900120D5EC2001206187F40120E6B120E3DE4
:090DF9007FC87E00120DB980E4F0
:080C3D008F348E338D328C31AF
:100C4500E4F538F537F536F53575391FE4FFFEFD62
:100C5500E5315480FCE4FBFAF97880C31205D470C1
:100C650043AC39EC1202AE8F418E408D3F8C3E7FF6
:100C7500007E007D007C40120A8CC004C005C006C1
:100C8500C007AF38AE37AD36AC35E41202A4D00399
:100C9500D002D001D00012000D1202E28F388E373B
:100CA5008D368C35AF34AE33AD32AC3178011205AB
:100CB500E58F348E338D328C311539C3E539648037
:0C0CC50094805088AF38AE37AD36AC35A7
:010CD1002200
:070E6400D2A8D288D2AF2210
:03000300020E7278
:030E7200D2003279
:100D5E00E4F5247590FFF521E4F522E4F523E52171
:100D6E0024FF92B3E52224FF92B4E52324FF92B52B
:100D7E007F017E00120DB9AF240524744C2FF8A606
:100D8E00900523E523C3940240D40522E522C394A3
:0F0D9E000240C80521E521C3940240BCE4F524BE
:010DAD002223
:10061800E4F524F523F522F521AF52FCFDFEFBFAA3
:100628007901F81204A9C004C005C006C007AF5379
:10063800E4FCFDFEFBFAF978011204A9D003D0020C
:10064800D001D000EF2BFFEE3AFEED39FDEC38FC7F
:10065800A804A905AA06AB07E551FEE4FCFD2BFB9F
:10066800EA3EFAED39F9EC38F8E4FEEB2550FFEEF6
:100678003AFEED39FDEC38FC1202A48F2C8E2B8D3E
:100688002A8C291202E2120C3DE41202A48F2C8E4D
:100698002B8D2A8C29AF4EE4FCFDFEFBFA7901F87C
:1006A8001204A9C004C005C006C007AF4FE4FCFD92
:1006B800FEFBFAF978011204A9D003D002D001D0C8
:1006C80000EF2BFFEE3AFEED39FDEC38FCA804A94B
:1006D80005AA06AB07E54DFEE4FCFD2BFBEA3EFA56
:1006E800ED39F9EC38F8E4FEEB254CFFEE3AFEED77
:1006F80039FDEC38FC1202A41202E2120C3DE4129D
:1007080002A4AB2CAA2BA92AA8291202078F288E8B
:10071800278D268C257F207EBC7DBE7C4CAB28AAED
:1007280027A926A8251200FE1202E28F248E238D07
:10073800228C217F207EBC7DBE7C4CAB28AA27A9B9
:1007480026A8251200FEC004C005C006C007AF24B5
:10075800AE23AD22AC21E41202A4A804A905AA067E
:10076800AB07D007D006D005D0041200098F308E11
:100778002F8D2E8C2DE4FFFE7D207C41AB30AA2FDF
:10078800A92EA82D1200FEE4FBFA79407842120047
:100798000D1202E28F5DE4FFFE7DC87C42AB30AAF9
:1007A8002FA92EA82D1200FE1202E27C007D0A124B
:1007B8000454ED2430F55EE4FFFE7D7A7C44AB30D2
:1007C800AA2FA92EA82D1200FE1202E27C007D0A93
:1007D800120454ED2430F55F7F007E407D1C7C467A
:1007E800AB30AA2FA92EA82D1200FE1202E27C001F
:1007F8007D0A120454ED2430F5607F007E507DC3DD
:100808007C47AB30AA2FA92EA82D1200FE1202E2B7
:100818007C007D0A120454ED2430F5617F007E24AB
:100828007D747C49AB30AA2FA92EA82D1200FE1288
:1008380002E27C007D0A120454ED2430F5627F80C8
:100848007E967D187C4BAB30AA2FA92EA82D1200BE
:10085800FE1202E27C007D0A120454ED2430F56396
:100868007B807A9679987800AF24AE23AD22AC21AC
:10087800120534EF2430F5547B407A42790F780022
:10088800AF24AE23AD22AC21120534E47B0AFAF979
:10089800F8120534EB2430F5557BA07A8679017877
:1008A80000AF24AE23AD22AC21120534E47B0AFA52
:1008B800F9F8120534EB2430F556E47B107A27F961
:1008C800F8AF24AE23AD22AC21120534E47B0AFA3A
:1008D800F9F8120534EB2430F557E47BE87A03F98C
:1008E800F8AF24AE23AD22AC21120534E47B0AFA1A
:1008F800F9F8120534EB2430F558E47B64FAF9F87A
:10090800AF24AE23AD22AC21120534E47B0AFAF9F8
:10091800F8120534EB2430F559E47B0AFAF9F8AFFC
:1009280024AE23AD22AC21120534E47B0AFAF9F88F
:10093800120534EB2430F55AE47B0AFAF9F8AF24AF
:0E094800AE23AD22AC21120534EB2430F55B5A
:01095600227E
:100E3D00E4F52174542521F8E6FF120E5C0521E539
:060E4D0021C3941040EDEA
:010E5300227C
:0B0DAE008FA07F057E00120DB9D282DD
:100DB900E4FDFCC3ED9FEC9E5015E4FBFA0BBB0070
:0F0DC900010AEB64704A70F50DBD00010C80E467
:010DD80022F8
:080E5400C280120DAEC2822221
:080E5C00D280120DAEC2822209
:100E2000C282C2817F38120E547F0C120E547F068C
:0D0E3000120E547F01120E547F81020E54E9
:070E6B00EF4480FF020E546A
:1000060002034EE86480F8E933E83360110460F0D7
:10001600ED33EC337009E8FCE9FDEAFEEBFF220460
:1000260060DED3EB9FEA9EE99DE8C2E78CF0C2F75B
:1000360095F0400CE8CCF8E9CDF9EACEFAEBCFFB27
:1000460012031985D0F05804700320D5B3E8047064
:10005600075002B2D502035892D5EC0460F7E4CCFF
:10006600C0E0C398F8603B94186008400DD0E0FBF0
:10007600020330E4FBFAC9FC8028E830E406E4C950
:10008600FBE4CAFCE830E305E4C9CACBFCE8540744
:100096006010F8C3E913F9EA13FAEB13FBEC13FC4F
:1000A600D8F130F52FC3E49CFCEF9BFFEE9AFEEDF2
:1000B60099FDD0E0FBEF4E4D4C701222DB0302039C
:1000C60055EC2CFCEF33FFEE33FEED33FDED30E760
:1000D600EB020330EF2BFFEE3AFEED39FDD0E0FBED
:1000E60050130BBB0003020358ED13FDEE13FEEF96
:0800F60013FFEC13FC020330C0
:1000FE00EC4D6011E8497017ED33EC3304600DE4FC
:10010E00FCFFFEFD22E933E8330470F802034E12C1
:10011E00031958046009E4CC2481500628500902C2
:10012E000358284003020355C0E0EB4A7044B980DF
:10013E0006D0E0FB020344EF4E701CBD8008EBFFBF
:10014E00EAFEE9FD80EBE98DF0A4FEE5F00201E7A1
:10015E00E9CDF9EAFEEBFFEF89F0A4FCE5F0CE89DC
:10016E00F0A42EFFE435F0CD89F0A42DFEE435F099
:10017E008067EF4E7005BD80D780C3EF8BF0A4ACC7
:10018E00F0EE8BF0A42CFCE435F0F8EF8AF0A42C02
:10019E00E5F038FCE433CB8DF0A42CFCE5F03BF815
:1001AE00EE8AF0A42CFCE5F038F8E433CF89F0A405
:1001BE002CFCE5F038CF3400CE89F0A42FFFE5F00B
:1001CE003EFEE433C98DF0A42EFEE5F039CD8AF063
:1001DE00A42FFFE5F03EFEE43DFD33D0E0FB5007DB
:1001EE000BBB000F020358EC2CFCEF33FFEE33FE7B
:0601FE00ED33FD020330A9
:10020400020358EC5D046005E85904700302034ED0
:10021400120319580460F6EC4860F2EC7004FDFE19
:10022400FF22C860DB2481C85009C39860025006CD
:100234000203559850CAF582E9294B4A7005AB82EE
:1002440002034475F0007C1A7880C3EF9BEE9AEDAC
:1002540099400DC3EF9BFFEE9AFEED99FDE842F045
:10026400DC23ACF0D0E0FFD0E0FED0E0FDAB822098
:10027400E7101BEB60BAEC2CFCEF33FFEE33FEED22
:1002840033FD020330E803F830E705C0F075F000F1
:10029400EF2FFFEE33FEED33FD40B830E7C280AA06
:1002A40075F020800E75F010800575F0087D007ED5
:1002B400007F003392D530D5031205C6EC334010CD
:1002C400EF33FFEE33FEED33FDEC33FCD5F0ED22DE
:0E02D400E5F0247EA2D513CC92E7CDCEFF221A
:1002E200EDD2E7CD33EC3392D524814006E4FFFE14
:1002F200FDFC22FCE4CFCECDCC24E0501174FF8073
:10030200EDC3CC13CCCD13CDCE13CECF13CF04700F
:07031200F030D5DE0205C644
:100A8C008F3D8E3C8D3B8C3AE4FFFE7D807C3FABF2
:100A9C003DAA3CA93BA83A12037D7009AF3DAE3C80
:100AAC00AD3BAC3A22AF3DAE3CAD3BAC3A1203632E
:100ABC00FBAF41AE40AD3FAC3E120363FFBF01083C
:100ACC00E4FFFE7D807C3F22EF64046022EB640433
:100ADC00601DBB0127E4FFFEFDFCAB41AA40A93F12
:100AEC00A83E12037D60084006E4FFFEFDFC227464
:100AFC00FFF541F540F53FF53E020B9AE4F542F562
:100B0C0043FFFEFDFCAB3DAA3CA93BA83A12037D7A
:100B1C00504BAF41AE40AD3FAC3E1202E28E428F25
:100B2C0043AC42AD43EC1202A9C8ECC8C9EDC9CA2A
:100B3C00EECACBEFCBAF41AE40AD3FAC3E1200099D
:100B4C00E4FBFAF9F812037D70A5AF3DAE3CAD3B6A
:100B5C00AC3A1203F68F3D8E3C8D3B8C3AAF3DAEDA
:100B6C003CAD3BAC3A12098BAB41AA40A93FA83E25
:100B7C001200FE120BDB8F418E408D3F8C3EE54305
:100B8C0030E00B1203F68F418E408D3F8C3EAF410F
:070B9C00AE40AD3FAC3E226C
:10031900E9D2E7C933E833F892D5EDD2E7CD33EC2A
:0703290033FC5002B2D522A3
:10033000EC30E7100FBF000C0EBE00080DBD00042E
:100340000BEB6014A2D5EB13FCED92E7FD2274FFDA
:10035000FCFDFEFF22E480F8A2D574FF13FC7D8033
:03036000E480EF47
:10036300ED33EC33601004700FED547F70057402AD
:0A03730092E0227404220422E42226
:10037D0074F8CC6480CCC86480C8F58204604FC327
:10038D00EB9FF5F0EA9E42F0E99D42F0E89C45F0C6
:10039D00603C501DE5825FFFE582D313CB5BCBF450
:1003AD002B5582FB50280ABA002409B90020088079
:1003BD001DE5825BFBE582D313CF5FCFF4C3132F13
:1003CD005582FF50090EBE00050DBD00010CC3EB9B
:1003DD009FF5F0EA9E42F0E99D42F0E89C45F06001
:0903ED0007CC4820E701B3EC2223
:1003F600ED33EC33600A047003BD8004ECB2E7FC15
:0104060022D3
:100BA30033DA929E35B16011377FE5FE39218489AE
:100BB3003AAEC3FF3C1D955B3D6358473E75FDF060
:100BC3003F3172183F800000C2D502035802034E22
:100BD300BD80FA50F3020355ED33EC330460F17B2F
:100BE3003B7AAA79B8783F1200FEED33EC3392D505
:100BF300247B5011A2D570DB500BED4480240450AC
:100C030004A2D580CEEFFBEEFAEDF9ECF81202E286
:100C1300EFF582F404FC1202AE12000DC082900BB9
:100C2300A37409120416ED33CC33D0F092D525F01A
:0A0C3300A2D57001C313CC13FD22FB
:100957003E9248DA3ECCCCCD3F2AAAAB40000000FD
:100967003F8000003F9837F03FB504F33FD744FC82
:100977003E3172173EB172173F0515913EDE5BD9C6
:10098700D2018002C201EDD2E7F8CD33EC33047017
:100997000BBD800592D502035802034E40FBD314CA
:1009A70060F2F5F07C3FEE7A00C39496C8948B40D2
:1009B700230AC89469C8941A401A0AC89468C89444
:1009C7001F40110AC8945AC89425400805F07A00B8
:1009D700CDC2E7CDC0F08C448D458E468F47EA23C4
:1009E70023C0E02467F582E43409F5831206081270
:1009F700000DECC0E0EDC0E0EEC0E0EFC0E0120596
:100A0700F8A844A945AA46AB47120009D0E0FBD095
:100A1700E0FAD0E0F9D0E0B2E7F81202078C448D93
:100A2700458E468F479009577403120407A844A9B7
:100A370045AA46AB471200FED0E0600F2473F5824B
:100A4700E43409F58312060812000D8C448D458E97
:100A5700468F47D0E0C3947FFDE49400FC1202A9BF
:100A67007B187A727931783F1200FEA844A945AA0B
:100A770046AB4712000D30010B7BD97A5B79DE78E4
:050A87003E1200FE22FA
:10040700C0E0EFFBEEFAEDF9ECF81200FED0E0F5F4
:10041700F0EFFBEEFAEDF9ECF81205F8A3A3A3A3AE
:10042700E8C0E0E9C0E0EAC0E0EBC0E0C0F01200DD
:10043700FE120608A3A3A3A312000DD0F0D0E0FB81
:0D044700D0E0FAD0E0F9D0E0F8D5F0D422F2
:100CDE00020DD9E493A3F8E493A34003F68001F246
:100CEE0008DFF48029E493A3F85407240CC8C33317
:100CFE00C4540F4420C8834004F456800146F6DFE6
:100D0E00E4800B0102040810204080900E02E47E65
:100D1E00019360BCA3FF543F30E509541FFEE493DA
:100D2E00A360010ECF54C025E060A840B8E493A3A1
:100D3E00FAE493A3F8E493A3C8C582C8CAC583CACC
:100D4E00F0A3C8C582C8CAC583CADFE9DEE780BE84
:010E1F0000D2
:10045400BC000BBE0029EF8DF084FFADF022E4CC8C
:10046400F875F008EF2FFFEE33FEEC33FCEE9DEC55
:10047400984005FCEE9DFE0FD5F0E9E4CEFD22ED9B
:10048400F8F5F0EE8420D21CFEADF075F008EF2FE5
:10049400FFED33FD4007985006D5F0F222C398FDD6
:0504A4000FD5F0EA2273
:1004A900E88FF0A4CC8BF0A42CFCE98EF0A42CFCF2
:1004B9008AF0EDA42CFCEA8EF0A4CDA8F08BF0A470
:1004C9002DCC3825F0FDE98FF0A42CCD35F0FCEBCF
:1004D9008EF0A4FEA9F0EB8FF0A4CFC5F02ECD3994
:0F04E900FEE43CFCEAA42DCE35F0FDE43CFC2201
:1004F80075F008758200EF2FFFEE33FECD33CDCCBB
:1005080033CCC58233C5829BED9AEC99E58298403D
:100518000CF582EE9BFEED9AFDEC99FC0FD5F0D61A
:10052800E4CEFBE4CDFAE4CCF9A88222B800C1B944
:100538000059BA002DEC8BF084CFCECDFCE5F0CB82
:10054800F97818EF2FFFEE33FEED33FDEC33FCEBBB
:1005580033FB10D703994004EB99FB0FD8E5E4F976
:10056800FA227818EF2FFFEE33FEED33FDEC33FC63
:10057800C933C910D7059BE99A4007EC9BFCE99A57
:10058800F90FD8E0E4C9FAE4CCFB2275F010EF2F9C
:10059800FFEE33FEED33FDCC33CCC833C810D7079C
:1005A8009BEC9AE899400AED9BFDEC9AFCE899F8D7
:0E05B8000FD5F0DAE4CDFBE4CCFAE4C8F9226A
:0E05C600C3E49FFFE49EFEE49DFDE49CFC2246
:1005D400EB9FF5F0EA9E42F0E99D42F0E89C45F07D
:0105E40022F4
:1005E500E8600FEFC333FFEE33FEED33FDEC33FC74
:0305F500D8F12218
:1005F800E493FC740193FD740293FE740393FF2249
:10060800E493F8740193F9740293FA740393FB2248
:00000001FF
